S0100000696E74657276616C2E73726563AF
S113000010C02AC056C0A1C027C026C025C024C025
S113001023C022C021C020C01FC01EC01DC01CC0E0
S11300201BC011241FBECFE5D1E0DEBFCDBF10E061
S1130030A0E6B0E0E0EEF1E002C005900D92A23837
S1130040B107D9F720E0A2E8B0E001C01D92A638BC
S1130050B207E1F78BD0C2C0D3CF28E030E054E040
S1130060982F91709BBB8695492F42604BBB9BBBDD
S11300705BBB1BBA215031092115310589F781E099
S113008090E008958EEFE9DF2FEF84E39CE02150A8
S113009080409040E1F700C000008FEFDEDF2FEFDB
S11300A084E39CE0215080409040E1F700C00000D0
S11300B0E9CF1F920F920FB60F9211242F933F9303
S11300C04F935F936F937F938F939F93AF93BF935C
S11300D0EF93FF9380916000882319F18BEFBDDFCC
S11300E02FEF86E791E0215080409040E1F700C077
S11300F000008091840090918500019684309105E0
S113010029F0909385008093840004C010928500A8
S1130110109284001092830010928200109260006A
S113012003C081E080936000FF91EF91BF91AF9194
S11301309F918F917F916F915F914F913F912F91FB
S11301400F900FBE0F901F9018951F920F920FB62D
S11301500F9211248BEF81DF2FEF86E791E021507E
S113016080409040E1F700C000008CDF87E88ABB44
S113017017BA8BB780638BBF939A80B5846080BDB8
S113018078942FEF86E191E1215080409040E1F78F
S113019000C00000E0918400F0918500EE0FFF1F85
S11301A0EE0FFF1FEE0FFF1F8091820090918300DE
S11301B0E80FF91FEF59FF4F80814FDF80918200D4
S11301C09091830001969093830080938200089716
S11301D0C1F61092830010928200D3CFF894FFCF1F
S11301E001F5496165FFFFFFFF4105496165FFFFB7
S11301F0FF0449D1C3C7F3FFFFF5D1C3C7F3FFFF22
S1050200FF00F9
S9030000FC
